:100000000C94ED030C9415040C9415040C94150435
:100010000C9415040C9415040C9415040C941504FC
:100020000C9415040C9415040C9479130C940B1275
:100030000C9415040C9415040C9415040C941504DC
:100040000C9415040C9415040C9415040C941504CC
:100050000C9415040C9415040C9415040C94210DA7
:100060000C9415040C9415040C9415040C941504AC
:100070000C9415040C9415040C9415040C9415049C
:100080000C9415040C9415040C9415040C9415048C
:100090000C9415040C9415040C9415040C9415047C
:1000A0000C9415040C9415040C941504360E390E9A
:1000B000280E2C0E320E5A0E5A0E5A0E3D0E410EBE
:1000C000450E4B0E4F0E5A0E550E5072657373202F
:1000D000412042746E20746F205374617274004723
:1000E000616D65204F7665720048696768205363CB
:1000F0006F7265210000000000003E5B4F5B3E3EDA
:100100006B4F6B3E1C3E7C3E1C183C7E3C181C57C3
:100110007D571C1C5E7F5E1C00183C1800FFE7C367
:10012000E7FF0018241800FFE7DBE7FF30483A0636
:100130000E2629792926407F050507407F05253FA2
:100140005A3CE73C5A7F3E1C1C08081C1C3E7F148E
:10015000227F22145F5F005F5F06097F017F0066D8
:1001600089956A606060606094A2FFA29408047E32
:10017000040810207E201008082A1C08081C2A08E1
:10018000081E101010100C1E0C1E0C30383E38309B
:10019000060E3E0E06000000000000005F0000009A
:1001A00007000700147F147F14242A7F2A122313C8
:1001B00008646236495620500008070300001C22DC
:1001C00041000041221C002A1C7F1C2A08083E080E
:1001D000080080703000080808080800006060000F
:1001E00020100804023E5149453E00427F40007203
:1001F000494949462141494D331814127F1027457A
:100200004545393C4A494931412111090736494997
:100210004936464949291E000014000000403400B8
:10022000000008142241141414141400412214086C
:1002300002015909063E415D594E7C1211127C7F24
:10024000494949363E414141227F4141413E7F4932
:100250004949417F090909013E414151737F08081D
:10026000087F00417F41002040413F017F08142268
:10027000417F404040407F021C027F7F0408107F86
:100280003E4141413E7F090909063E4151215E7FC1
:1002900009192946264949493203017F01033F4094
:1002A00040403F1F2040201F3F4038403F6314081C
:1002B000146303047804036159494D43007F4141AD
:1002C000410204081020004141417F040201020460
:1002D0004040404040000307080020545478407FCD
:1002E000284444383844444428384444287F385407
:1002F00054541800087E090218A4A49C787F0804AE
:10030000047800447D40002040403D007F10284498
:100310000000417F40007C047804787C0804047865
:100320003844444438FC1824241818242418FC7C2D
:1003300008040408485454542404043F44243C4012
:1003400040207C1C2040201C3C4030403C44281075
:1003500028444C9090907C4464544C4400083641AE
:10036000000000770000004136080002010204028C
:100370003C2623263C1EA1A161123A4040207A3837
:10038000545455592155557941215454784121559A
:1003900054784020545579400C1E527212395555EC
:1003A0005559395454545939555454580000457CC2
:1003B000410002457D420001457C40F0292429F09E
:1003C000F0282528F07C545545002054547C547C5A
:1003D0000A097F4932494949323248484832324A4B
:1003E0004848303A4141217A3A42402078009DA065
:1003F000A07D39444444393D4040403D3C24FF24E5
:1004000024487E4943662B2FFC2F2BFF0929F62019
:10041000C0887E090320545479410000447D413056
:1004200048484A32384040227A007A0A0A727D0DE2
:1004300019317D2629292F28262929292630484D9A
:100440004020380808080808080808382F10C8ACE9
:10045000BA2F102834FA00007B000008142A142256
:1004600022142A14089500220095AA005500AAAA71
:1004700055AA55AA000000FF00101010FF00141428
:1004800014FF001010FF00FF1010F010F0141414EF
:10049000FC001414F700FF0000FF00FF1414F40424
:1004A000FC141417101F10101F101F1414141F0019
:1004B000101010F0000000001F101010101F10107E
:1004C0001010F010000000FF10101010101010108D
:1004D00010FF10000000FF140000FF00FF00001FCD
:1004E00010170000FC04F414141710171414F4046B
:1004F000F40000FF00F714141414141414F700F798
:10050000141414171410101F101F141414F41410C2
:1005100010F010F000001F101F0000001F1400005A
:1005200000FC140000F010F01010FF10FF14141461
:10053000FF141010101F00000000F010FFFFFFFF5D
:10054000FFF0F0F0F0F0FFFFFF0000000000FFFF01
:100550000F0F0F0F0F38444438447C2A2A3E147E74
:1005600002020606027E027E026355494163384458
:10057000443C04407E201E2006027E020299A5E72C
:10058000A5991C2A492A1C4C7201724C304A4D4DC7
:10059000303048784830BC625A463D3E49494900AF
:1005A0007E0101017E2A2A2A2A2A44445F444440CB
:1005B000514A444040444A51400000FF0103E0805A
:1005C000FF000008086B6B083612362436060F0948
:1005D0000F06000018180000001010003040FF0146
:1005E00001001F01011E00191D1712003C3C3C3C7C
:1005F0000000000000F0F89C8E8783878E9CF8F046
:100600000000FEFF0303030303070EFCF80000FED7
:10061000FF0303030303070EFCF80000FFFF0000C5
:100620000000000000FFFF0000FEFF838383838340
:10063000C7EE7C380000F8FC0E07030303070EFC2E
:10064000F800003F7FE0C08080C0E07F3FFFFF01F7
:10065000010101010101FFFF0000FFFF0C0C0C0C68
:100660001C3E77E3C100007FFFC0C0C0C0C0E07087
:100670003F1F00001F3F70E0C0C0C0E0703F1F0080
:10068000007FFFC1C1C1C1C1E3773E1C00001F3F15
:1006900070E0C0C0C0E0703F1F000000000001FF1C
:1006A000FF01000000D5F08D14A1C881CFD9F1AFB2
:1006B00020001402130212021502070208020A02A5
:1006C0000A010B020B010902090104010C010601D8
:1006D000000000000200090F0000030401000C00EC
:1006E000000000000000000000000000000000000A
:1006F0000408020110408040102040804080080221
:10070000040180402010020110801020404020048D
:1007100004040404030405020202020403020202A8
:10072000020606060606060404020202040400008D
:1007300000002300260029002C002F0000000000EC
:10074000250028002B002E003100000000002400AE
:1007500027002A002D00300012010002EF020140A4
:100760004123368000010102030112010002000052
:10077000004041233680000101020301417264758B
:10078000696E6F204C4C430041726475626F790052
:1007900004030904080B000202020100090400001E
:1007A00001020200000524001001052401010104DA
:1007B00024020605240600010705810310004009F4
:1007C000040100020A0000000705020240000007C1
:1007D000058302400000ED04391511241FBECFEF40
:1007E000DAE0DEBFCDBF11E0A0E0B1E0E0EDFDE278
:1007F00002C005900D92A833B107D9F726E0A8E30F
:10080000B1E001C01D92A732B207E1F717E0CAEDCF
:10081000D7E004C02297FE010E944816C63DD107CA
:10082000C9F70E94F40E0C94E6160C9400007F9217
:100830008F929F92AF92BF92CF92DF92EF92FF92F0
:100840000F931F93CF93DF93742E20913A012230A0
:100850003CF49B01245031092831310508F07EC059
:10086000EC01CC0FDD1FCC0FDD1F8B01000F111F22
:1008700021E0A801BE0186E991E00E94D508680147
:100880008FEFC81AD80A4E018FEF881A980A21E014
:10089000A601B40186E991E00E94D5087E0182E0BC
:1008A000E80EF11C21E0A801B70186E991E00E9461
:1008B000D5085E0183E0A80EB11C21E0A601B501B8
:1008C00086E991E00E94D5087720C9F021E0A601D1
:1008D000BE0186E991E00E94D50821E0A801B4019B
:1008E00086E991E00E94D50821E0A601B70186E9DA
:1008F00091E00E94D50821E0A801B5011EC01016A4
:10090000110664F021E040E050E0BE0186E991E08C
:100910000E94D50821E040E050E00EC00F331105E1
:10092000ECF021E04FE350E0BE0186E991E00E9447
:10093000D50821E04FE350E0B70186E991E0DF916F
:10094000CF911F910F91FF90EF90DF90CF90BF90CC
:10095000AF909F908F907F900C94D508DF91CF91AE
:100960001F910F91FF90EF90DF90CF90BF90AF90CD
:100970009F908F907F900895CF93C82F64E670E08A
:1009800080E090E00E9421146E317105810591058F
:100990002CF490913D01919590933D0180913D0102
:1009A0008C0F90913B01482F552747FD5095292FDB
:1009B000332727FD30952E503109421753072CF469
:1009C00082EF890F91E090933D018F3024F08FEFFB
:1009D00080933D018EE0CF91089582E991E00C94DF
:1009E000B00A9F92AF92BF92CF92DF92EF92FF92A6
:1009F0000F931F93CF93DF9380919001909191017A
:100A00008D3D25E0920748F064E170E080E090E0E1
:100A10000E948E0DBB24B3942EC08636E4E09E0760
:100A200048F06EE170E080E090E00E948E0D62E0A0
:100A3000B62E21C08F3EF2E09F0748F068E270E0DA
:100A400080E090E00E948E0D53E0B52E14C08837F0
:100A5000914048F062E370E080E090E00E948E0DEB
:100A600044E0B42E08C06CE370E080E090E00E94A7
:100A70008E0D35E0B32E82E991E00E94D00B0FE499
:100A800011E0C0E0D0E020E1A22EEB2CFF24E7FC37
:100A9000F094F80131978081CA2CC81ADC2CDB183D
:100AA000DC1454F46D2D772767FD709540E0CE017E
:100AB0000E941704D394F4CFF80180819A2C981ADD
:100AC0006701C90CD11C97FCDA94692D772767FD63
:100AD00070956C157D0534F440E0CE010E9417043A
:100AE0009394F3CFC0316CF4FE01E25CFE4F808141
:100AF0006A2D681B772767FD709541E0CE010E9443
:100B0000170421960E5F1F4FC032D10511F661E028
:100B100082E991E00E94C70B40E050E060E070E0A5
:100B200082E991E00E94C10B80913A0160919001AD
:100B300070919101823009F4C0C06031774228F48D
:100B400060E382E991E00E94760B809190019091A0
:100B50009101883E934028F460E382E991E00E948D
:100B6000760B80919001909191018436910528F443
:100B700060E382E991E00E94760B80919001909170
:100B800091010A9728F460E382E991E00E94760BD4
:100B900060919001709191014AE050E082E991E00A
:100BA0000E94C40F809139018823D9F161E082E964
:100BB00091E00E94CA0B60E082E991E00E94C70BBD
:100BC00040E050E060E070E082E991E00E94C10BFB
:100BD00060E282E991E00E94760B60E282E991E0B6
:100BE0000E94760B69EE70E082E991E00E94450F69
:100BF00060E282E991E00E94760B60E282E991E096
:100C00000E94760B60E282E991E00E94760B60E23E
:100C100082E991E00E94760B60E282E991E00E9415
:100C2000760B40E050E062E670E082E991E00E94DD
:100C3000C10B80918E0190918F018031974228F4F1
:100C400060E382E991E00E94760B80918E019091A1
:100C50008F01883E934028F460E382E991E00E948E
:100C6000760B80918E0190918F018436910528F446
:100C700060E382E991E00E94760B80918E01909171
:100C80008F010A9728F460E382E991E00E94760BD5
:100C900060918E0170918F014AE050E082E991E00D
:100CA0000E94C40F61E082E991E00E94C70B60E0FE
:100CB00082E991E00E94CA0B06C04AE050E082E956
:100CC00091E00E94C40F80913A0181110BC048E36A
:100CD00050E065E270E082E991E00E94C10B6FEDA7
:100CE00070E00CC0813071F449E350E06AE070E0DC
:100CF00082E991E00E94C10B6AEC70E082E991E028
:100D00000E94450F86E991E0DF91CF911F910F91ED
:100D1000FF90EF90DF90CF90BF90AF909F900C949A
:100D2000440AFF920F931F93CF93DF93EEE3F1E01A
:100D3000119281E0EE34F807D9F786E180933B0108
:100D400081E080933D01CFE4D1E010E00BE075EF4E
:100D5000F72E111105C000934E01F0924F010CC007
:100D6000FE01339780810E94BC04FE01319780838D
:100D700090913B01891B88831F5F2296103249F7AF
:100D80001092390181E080933A0182E080933C0126
:100D9000DF91CF911F910F91FF900C94F10486E9A0
:100DA00091E00E949C0A86E991E00E94440A60E07A
:100DB00082E991E00E94CD0B86E991E00E949608BD
:100DC00064EF71E080E090E00E948E0D0C9491063B
:100DD000CF93C0914D0188E00E94CA0E20913C0142
:100DE000892B11F42F5F01C0215020933C01809189
:100DF0003C01843024F083E080933C01CF5F8091FC
:100E00003C018D3F24F48DEF80933C01C1508091D3
:100E10003C01181614F4CF5F02C08111C150C131DA
:100E200024F4C13F1CF4C1EF01C0C0E180918C01EA
:100E30000E94BC0490913B01282F291B922FE1E5D1
:100E4000F1E020E030E0DF0111974C9112974C93D4
:100E5000408111964C932F303CF4D901A25CBE4FD7
:100E600011964C9111974C932F5F3F4F32962F3133
:100E7000310549F780938C0190938D01C0934D010A
:100E800080916C01C81714F010923A0180916D01A5
:100E90008C1714F010923A0180913A0181111DC013
:100EA00010923801809190019091910120918E01D2
:100EB00030918F012817390738F490938F01809370
:100EC0008E0181E0809339010E94F10464EF71E0AA
:100ED00080E090E0CF910C948E0D0E94F1048091FF
:100EE00090019091910101969093910180939001CE
:100EF00020913B0125304CF06BE470E00E94F1152D
:100F0000892B19F4215020933B01CF910895CF9361
:100F100080913A01823019F4CF910C94E80688E070
:100F20000E94CA0EC1E0892B09F0C0E0809138010F
:100F3000C817A1F0882381F080913A01811103C084
:100F40000E94910609C0813039F482E080933A0111
:100F50001092910110929001C0933801CF910895A1
:100F6000CF93CFB7F8948091AE01811127C0E0E212
:100F7000F7E08491E1E0F7E09491E82FF0E0EE0FE4
:100F8000FF1FE65BF84FA591B4918C91892321F462
:100F900061E081E10E94940E61E081E10E945B0EBC
:100FA0008CB580618CBD8CB580648CBD61E08FE0B8
:100FB0000E945B0E61E080E10E945B0E8091AE01B9
:100FC0008F5F8093AE01CFBFCF910895CF93DF9312
:100FD000EC010E94F80B19821A8280E18D831C8239
:100FE0001B821A861B861C861D861E86DF91CF916A
:100FF00008950E94060D80788038B9F485EA0E9431
:10100000DD0C40E060E080E00E94ED0C0E94060DE7
:1010100084FD03C00E94AD0CF9CF41E061E081E0A6
:101020000E94ED0C84EA0C94DD0C0895FF920F935E
:101030001F93CF93DF931F92CDB7DEB7F42E122FFD
:1010400069830E94060D6981082F0623061328C0B4
:1010500061E089E00E94940E68EC70E080E090E02E
:101060000E948E0D60E08F2D0E94940E82E090E031
:101070000E94C816181729F0612F82E090E00E94A4
:10108000D01664EF71E080E090E00E948E0D61E088
:101090008F2D0E94940E0E94060D80238017D9F395
:1010A0000F90DF91CF911F910F91FF900895CF93F3
:1010B000DF93EC010E94060D82FF17C060E089E01B
:1010C0000E94940E2FEF4BE064E8CE010E941608B8
:1010D00020E04AE064E1CE010E94160868EC70E06E
:1010E00080E090E00E948E0DE5CF61E089E0DF9125
:1010F000CF910C94940E60937C00673C19F480E2CD
:1011000080937B0062E070E080E090E00E948E0DB2
:1011100080917A00806480937A0080917A0086FDC5
:10112000FCCF80917800909179000895CF92DF9262
:10113000EF92FF92CF93DF937C01C4E6D0E08881E9
:101140008E7F888367ECC7010E947B086C016EE587
:10115000C7010E947B087C010E946B0D9B01AC01C2
:10116000E094F094C094D094EC9CD001ED9CB00D30
:10117000FC9CB00D112420953095409550950E940F
:101180004C166B017C010E946B0D6C0D7D1D8E1D3C
:101190009F1D0E941914888181608883DF91CF91FF
:1011A000FF90EF90DF90CF9008956038710518F5AB
:1011B0004034510500F5E42FE695E695E695F0E01C
:1011C00047705527F695FE2FEE27F795E795E60F22
:1011D000F71FE155FE4F81E090E0042E01C0880F1B
:1011E0000A94EAF7222319F09081982B03C0809586
:1011F00090819823908308958FEA91E0B62FB111E2
:10120000BFEFFC010024B193B193B193B193039468
:10121000D1F7089560E00C94FC082F923F924F9212
:101220005F926F927F928F929F92AF92BF92CF9276
:10123000DF92EF92FF920F931F93CF93DF9300D033
:1012400000D01F92CDB7DEB7C982202E312CCB0142
:10125000820D931D97FD00C1603871050CF0FCC034
:10126000CA018E0D911D97FDF7C0403451050CF059
:10127000F3C0CA0157FF04C088279927841B950B28
:1012800087709927FA0157FD3796DF01F3E0B5958E
:10129000A795FA95E1F7BB83AA8357FF09C0119779
:1012A000BB83AA8348E050E0FA01E81BF90BCF01A9
:1012B0004E2D469546954695C42ED12C4E2D477001
:1012C00019F0FFEFCF1ADF0A49012A813B813695D9
:1012D000322F22273795279521553E4F3D832C836A
:1012E0004A815B81E8E06E2E712C681A790A9A01B6
:1012F000AA81BB812A1B3B0B2C153D050CF0ACC011
:101300004830510509F4A8C04F3F3FEF53070CF494
:1013100094C09B0100E010E0AC81BD81A058BF4F9C
:101320002D01021513050CF088C02038310509F491
:1013300084C037FD7DC04F3FBFEF5B0709F488C015
:10134000D801A80DB91DEC80FD80E20EF31EE981E5
:10135000E13061F4FD01A491082E01C0AA0F0A94A6
:10136000EAF7F701B080AB29A08321C0F981F11120
:1013700012C0FD01A491EA2FF0E0082E02C0EE0F8A
:10138000FF1F0A94E2F7E095F095D701AC90B12CDD
:10139000EA21FB210BC0FD01A491EA2F082E01C018
:1013A000EE0F0A94EAF7D701BC90EB25EC93009777
:1013B00009F43EC04730510509F43AC0F801E80D80
:1013C000F91DB981B13079F4E491F0E0062C02C046
:1013D000F595E7950A94E2F77201E20EF31ED70144
:1013E000BC90EB2924C0B981B11113C0E491F0E0A5
:1013F000062C02C0F595E7950A94E2F7E095F09582
:101400007201E20EF31ED701AC90B12CEA21FB2150
:101410000EC0E491F0E0062C02C0F595E7950A9421
:10142000E2F77201E20EF31ED701BC90EB25EC93BC
:101430000F5F1F4F2F5F3F4F74CF4F5F5F4F820C87
:10144000931C2C813D8120583F4F3D832C834FCFEF
:10145000009709F0B3CFECCF0F900F900F900F9043
:101460000F90DF91CF911F910F91FF90EF90DF9040
:10147000CF90BF90AF909F908F907F906F905F9034
:101480004F903F902F90089560E08FEA91E00C9488
:10149000B80CAF92BF92CF92EF920F931F93CF935E
:1014A000DF935C0160E08AE00E94940ECEEEDFEFF5
:1014B0001C2FCC3F19F441E060E004C0C83129F48E
:1014C00040E061E081E00E94ED0CC5010E940A0944
:1014D000CC24C394E0E1EE2E08E525EF35E0AE0123
:1014E00064E170E0C5010E940D09C5010E94440A33
:1014F0006BE170E080E090E00E948E0D103F31F4CF
:101500006AEF70E080E090E00E948E0D2196C93174
:10151000D10571F66EEE72E080E090E00E948E0DD3
:1015200061E089E0DF91CF911F910F91EF90CF9013
:10153000BF90AF900C94940ECF93DF93EC010E9478
:101540002B0C0E94D10CCE010E94F907CE010E9403
:101550005708CE010E94490ADF91CF910C94E90B04
:10156000CF93DF93EC0183E291E0998388831B8220
:101570001A82CE0104960E94E6078BE191E09983DE
:1015800088831D8A1C8A1F8A1E8A81E0888F198E93
:101590008A8F1B8EDF91CF9108952F923F924F92A9
:1015A0005F926F927F928F929F92AF92BF92CF92F3
:1015B000DF92EF92FF920F931F93CF93DF93CDB7FC
:1015C000DEB728970FB6F894DEBF0FBECDBF2A0155
:1015D000603871050CF071C0403451050CF06DC0DD
:1015E000AB01A5E0CA9E400D511D1124141615062D
:1015F0000CF063C0EC2DF0E0FC83EB83A201F8E07B
:10160000CF9E400D511D1124141615060CF055C027
:10161000A5E02A9FA00111245B0118861F824B5070
:101620005F4F5A834983FC013496FE83ED83FF812B
:10163000F53041F0E981FA812F813885E20FF31FFF
:10164000149101C010E03201F8E0DF2E10FF02C05B
:10165000F02E01C0FE2CF1100BC0E01209C016954F
:10166000DA944B815C81640E751ED110EFCF19C0E6
:101670001501822D8A198C1590F74301882D861942
:101680008C1558F42F2DA401B1018D819E810E94EB
:10169000D5085FEF851A950AF1CF8FEF281A380A1F
:1016A000E8CFAF81B8851196B887AF83EB81FC8115
:1016B000AE0EBF1E169709F0BACF28960FB6F89453
:1016C000DEBF0FBECDBFDF91CF911F910F91FF9075
:1016D000EF90DF90CF90BF90AF909F908F907F90D2
:1016E0006F905F904F903F902F900895CF92EF9220
:1016F0000F93CF93DF93EC01262F6A3069F42A8D84
:101700008E899F8938E0239F800D911D11249F8B26
:101710008E8B1D8A1C8A2DC06D3059F14E895F89D0
:101720006C897D89CA8CE98C088D0E94CD0A2A8D2E
:10173000422F50E08C899D8936E0239F800D911DBA
:1017400011249D8B8C8B2B8D222399F06AEF6403DF
:101750009001659F300D112420583F4F28173907FD
:1017600044F4E881F9810190F081E02D6AE0CE0136
:10177000099581E090E0DF91CF910F91EF90CF90AC
:101780000895FC01758B648B578B468B0895FC0183
:10179000608F0895FC01618F0895FC01638F0895A7
:1017A000CF93DF93EC0104960E940A091F8A1E8AD8
:1017B0001D8A1C8ADF91CF91089561E085E00E9427
:1017C0005B0E61E08DE00E945B0E81E08093AF05CF
:1017D000089582E090E00E94C81681110C94DD0B00
:1017E00008958EBD00000DB407FEFDCF8EB508959F
:1017F0000895E091B205F091B30580819091B00514
:10180000892B8083E091B405F091B505908180919A
:10181000B1058095892380830895E091B405F09106
:10182000B50580819091B105892B8083E091B20547
:10183000F091B30590818091B005809589238083D4
:10184000E091B405F091B50590818091B105809546
:10185000892380830895CF93DF930E94B007C2EB62
:10186000D6E0BE01FE01849122966F5F7F4FFB019F
:101870006491882319F00E945B0EF3CF61E086E04B
:101880000E94940E61E070E080E090E00E948E0D76
:1018900060E086E00E94940E6AE070E080E090E0F4
:1018A0000E948E0D61E086E00E94940EEBE1F7E06D
:1018B000E491F0E0EE0FFF1FE45CF84F8591949106
:1018C0009093B5058093B405ECEFF6E0E491E093D6
:1018D000B105E3E1F7E0E491F0E0EE0FFF1FE45C17
:1018E000F84F859194919093B3058093B205E4EFFE
:1018F000F6E0E491E093B0058CB58C7F8CBD8DB59E
:1019000081608DBD0E940D0CC5EAD6E0FE01849178
:101910000E94F10B2196F6E0C23BDF07B9F70E9467
:10192000F90B809164008160809364008091640071
:10193000826080936400809164008068809364007A
:101940008091640080648093640080916500816070
:1019500080936500DF91CF91089583B7817F83BF26
:1019600083B7816083BF889583B78E7F83BF0895D7
:10197000FC0180818EBD61111082319682E090E081
:101980002081611110820DB407FEFDCF2EBD01969E
:101990003196813024E0920799F70DB407FEFDCF10
:1019A0000895CF93DF93C0E0D4E080E00E94F10B74
:1019B0002197D9F7DF91CF910895CF93DF931F92AD
:1019C000CDB7DEB789830E940D0C89810E94F10B8F
:1019D0000F90DF91CF910C94F90B1F93CF93DF936E
:1019E0001F92CDB7DEB7162F682F8AE049830E9479
:1019F000940E612F8BE00E94940E4981642F89E040
:101A00000F90DF91CF911F910C94940E8FB14CB138
:101A100023B150E0409550954074552733E05595DB
:101A200047953A95E1F730E02095309520713327BE
:101A30003595279535952795242B8095807F822B8A
:101A400008951F920F920FB60F9211242F933F9378
:101A50008F939F93AF93BF938091B7059091B805F3
:101A6000A091B905B091BA053091B60523E0230FD6
:101A70002D3720F40196A11DB11D05C026E8230FC6
:101A80000296A11DB11D2093B6058093B7059093D2
:101A9000B805A093B905B093BA058091BB059091A4
:101AA000BC05A091BD05B091BE050196A11DB11D5B
:101AB0008093BB059093BC05A093BD05B093BE0574
:101AC000BF91AF919F918F913F912F910F900FBE3A
:101AD0000F901F9018953FB7F8948091BB05909197
:101AE000BC05A091BD05B091BE0526B5A89B05C05B
:101AF0002F3F19F00196A11DB11D3FBF6627782F1A
:101B0000892F9A2F620F711D811D911D42E0660F72
:101B1000771F881F991F4A95D1F708958F929F923A
:101B2000AF92BF92CF92DF92EF92FF926B017C0156
:101B30000E946B0D4B015C01C114D104E104F1045E
:101B4000F1F00E9445140E946B0D681979098A0909
:101B50009B09683E73408105910570F321E0C21A2C
:101B6000D108E108F10888EE880E83E0981EA11CD8
:101B7000B11CC114D104E104F10429F7DDCFFF90B9
:101B8000EF90DF90CF90BF90AF909F908F9008958F
:101B9000789484B5826084BD84B5816084BD85B548
:101BA000826085BD85B5816085BDEEE6F0E080810F
:101BB00081608083E1E8F0E0108280818260808330
:101BC000808181608083E0E8F0E0808181608083B3
:101BD000E1E9F0E0808182608083808181608083A0
:101BE000E0E9F0E0808181608083E1ECF0E08081D9
:101BF0008460808380818260808380818160808333
:101C0000E3ECF0E0808181608083E0ECF0E08081B3
:101C100082608083E2ECF0E0808181608083EAE78B
:101C2000F0E0808184608083808182608083808115
:101C300081608083808180688083089590E0FC01CA
:101C40003197EF30F105B0F5EA5AFF4F0C94461684
:101C5000809180008F7703C0809180008F7D80937A
:101C60008000089580918000877FF9CF84B58F77B9
:101C700002C084B58F7D84BD0895809190008F77D8
:101C800007C0809190008F7D03C080919000877F76
:101C90008093900008958091C0008F7703C0809159
:101CA000C0008F7D8093C00008958091C200877F1F
:101CB0008093C2000895CF93DF9390E0FC01E05140
:101CC000F94F2491FC01E15FF84F8491882349F199
:101CD00090E0880F991FFC01E65BF84FA591B49145
:101CE000845C984FFC01C591D4919FB7611108C0E5
:101CF000F8948C91209582238C93888182230AC04A
:101D0000623051F4F8948C91322F309583238C9368
:101D10008881822B888304C0F8948C91822B8C93C9
:101D20009FBFDF91CF9108950F931F93CF93DF93C0
:101D30001F92CDB7DEB7282F30E0F901EF52F94FEF
:101D40008491F901E051F94F1491F901E15FF84FE5
:101D500004910023C9F0882321F069830E941E0E9C
:101D60006981E02FF0E0EE0FFF1FE45CF84FA591D2
:101D7000B4919FB7F8948C91611103C010958123A1
:101D800001C0812B8C939FBF0F90DF91CF911F914A
:101D90000F910895CF93DF93282F30E0F901EF5290
:101DA000F94F8491F901E051F94FD491F901E15FC4
:101DB000F84FC491CC2391F081110E941E0EEC2F9C
:101DC000F0E0EE0FFF1FE25DF84FA591B4912C916A
:101DD0002D2381E090E021F480E002C080E090E0DB
:101DE000DF91CF91089508950E94C80D0E94F30ECF
:101DF0008FEB95E00E94FC130E94CF06C0E0D0E07C
:101E00000E9487072097E1F30E940000F9CFCF924C
:101E1000DF92EF92FF920F931F93CF93DF937C019A
:101E20006A01EB0100E010E00C151D0571F06991ED
:101E3000D701ED91FC910190F081E02DC70109954A
:101E4000892B19F00F5F1F4FEFCFC801DF91CF91A2
:101E50001F910F91FF90EF90DF90CF900895611543
:101E6000710581F0DB010D900020E9F7AD014150D3
:101E70005109461B570BDC01ED91FC910280F38167
:101E8000E02D099480E090E00895EF92FF920F9387
:101E90001F93CF93DF938C017B01C0E0D0E0F7016B
:101EA000EC0FFD1F6491662359F0F801A081B18108
:101EB000ED91FC91C8010995892B11F02196EFCF86
:101EC000CE01DF91CF911F910F91FF90EF90089578
:101ED0008F929F92AF92BF92DF92EF92FF920F93F9
:101EE0001F93CF93DF93CDB7DEB7A1970FB6F894CA
:101EF000DEBF0FBECDBF7C01F42FD52ECB0119A2C2
:101F0000223008F42AE08E010F5D1F4F822E912CA3
:101F1000A12CB12C6F2F7D2DA50194010E940516D7
:101F2000F22FD32ECA01015011096A3014F4E0E3F4
:101F300001C0E7E3E60FD801EC93232B242B252BDC
:101F400049F7B801C7010E942F0FA1960FB6F89468
:101F5000DEBF0FBECDBFDF91CF911F910F91FF90DC
:101F6000EF90DF90BF90AF909F908F9008952115D4
:101F7000310541F4DC01ED91FC910190F081E02DFF
:101F8000642F09940C94680F9A01AB0160E070E033
:101F90000C94B70F615030F02091F100FC012083C8
:101FA0000196F8CF289884E68093C805089540915B
:101FB000C3055091C4052091C1053091C205421757
:101FC0005307B4F49091E8009570E1F39091E80024
:101FD00092FD19C08093F1008091C3059091C405D2
:101FE00001968F739927892B19F48EEF8093E8005F
:101FF0008091C3059091C40501969093C405809388
:10200000C30581E0089580E00895CF92DF92EF92BA
:10201000FF920F931F93CF93DF931F92CDB7DEB73D
:10202000082F162FF42E862F880F8E5F99830E941B
:10203000D70F83E00E94D70FE02EC02E9981D92EB2
:102040008C2D8E19811798F4F601F7FE02C0849149
:1020500001C080810E94D70F082F80E00E94D70F17
:102060008023FFEFCF1ADF0A8111EACF01C081E0A0
:102070000F90DF91CF911F910F91FF90EF90DF9024
:10208000CF9008958091D70081608093D70080EA37
:102090008093D80089B5806189BD89B5826089BD8A
:1020A00009B400FEFDCF61E070E080E090E00E94A6
:1020B0008E0D8091D8008F7C80618093D8008091B4
:1020C000E000807F8093E0000895CF93DF931F921C
:1020D000CDB7DEB71982CE0101960E94A5140E94E9
:1020E000DD15BE016F5F7F4F0E94561589810F90ED
:1020F000DF91CF9108952FB7FC012083F89467708A
:102100006093E9000895CF93DF931F92CDB7DEB7B8
:10211000682FCE0101960E947B108091F200998178
:102120009FBF0F90DF91CF910895FF920F931F9360
:10213000CF93DF9300D0CDB7DEB7F62E8A01909112
:10214000C705992311F057FF03C08FEF9FEF2BC0F6
:10215000682FCE0101967A830E947B108091F20055
:1021600090E0A8017A81801791070CF4AC01EF2D63
:10217000F72FF40E84E6FE1639F028988093C805F0
:102180009091F1009193F7CF4115510521F0809185
:10219000F200882321F089818FBFCA0104C08BE639
:1021A0008093E800F8CF0F900F90DF91CF911F91AF
:1021B0000F91FF900895CF93DF931F92CDB7DEB7B5
:1021C00041E050E0BE016F5F7F4F0E949510019784
:1021D00019F4898190E002C08FEF9FEF0F90DF919B
:1021E000CF910895CF93DF931F92CDB7DEB7682FBD
:1021F000CE0101960E947B109091E800892F807299
:1022000095FF04C09091F20080E4891B99819FBFE3
:102210000F90DF91CF9108956F927F928F929F924E
:10222000AF92BF92CF92DF92EF92FF920F931F93E4
:10223000CF93DF931F92CDB7DEB7782E7B01C42EEC
:10224000B52E8091C705882369F0042F152F8AEFDA
:10225000D82E872D8072982E9AE3A92E872D807410
:10226000882E11C08FEF9FEF57C0872D0E94F2106C
:10227000682E81110CC0DA94A9F361E070E080E06F
:1022800090E00E948E0D0115110579F73BC0282FB3
:1022900030E0021713070CF4602E672DCE01019673
:1022A0000E947B108091E80085FF29C0262D30E038
:1022B000021B130B992039F06A948FEF6816B1F066
:1022C0001092F100F9CFF701862D77FE07C08150FB
:1022D00058F094919093F1003196F9CF815020F00D
:1022E00091919093F100FACFE20EF31E8091E800F5
:1022F00085FF0FC00115110511F481100AC08981F5
:102300008FBFC1CF5D9884E68093C9058C2D9B2D2E
:1023100003C0A092E800F3CF0F90DF91CF911F91FF
:102320000F91FF90EF90DF90CF90BF90AF909F9074
:102330008F907F906F9008951092E9001092C405DD
:102340001092C3059093C2058093C1050895CF9262
:10235000DF92FF920F931F93CF93DF9300D0CDB7FF
:10236000DEB7F82E8A016B0101151105B1F0F601F7
:10237000F7FE02C0849101C0808149835A830E9484
:10238000D70F01501109FFEFCF1ADF0A49815A8197
:102390008111EACF8FEF9FEF01C0CA010F900F901C
:1023A000DF91CF911F910F91FF90DF90CF90089513
:1023B000BF92CF92DF92EF92FF920F931F93CF9332
:1023C000DF936C018B01EB013BEFB32E2097C1F043
:1023D0007E01C134D1051CF020E4E22EF12C809165
:1023E000E80082FFFCCFC8018C1B9D0B6E2D8C0D6D
:1023F0009D1D0E94CA0FB092E800CE19DF09E6CFFA
:10240000C801DF91CF911F910F91FF90EF90DF9066
:10241000CF90BF9008951F920F920FB60F92112484
:10242000DF92EF92FF920F931F932F933F934F935F
:102430005F936F937F938F939F93AF93BF93EF932C
:10244000FF93CF93DF93CDB7DEB76C97DEBFCDBFE1
:102450001092E9008091E80083FF23C168E0CE017B
:1024600045960E94CA0F82EF8093E8003D8937FFAE
:1024700005C08091E80080FFFCCF03C08EEF809301
:10248000E800832F807609F0F0C02E894F89D88C20
:1024900021110CC0303829F48091C6058093F100D9
:1024A00002C01092F1001092F100F4C0842F90E06D
:1024B0009D29213049F43111EDC0019709F0EAC09E
:1024C0008091C6058D7F0AC0233059F43111E2C0D6
:1024D000019709F0DFC08091C60582608093C60530
:1024E000D9C0253041F48091E80080FFFCCF4068DE
:1024F0004093E300CFC0263009F08DC0EB8CFC8CFC
:1025000022E0D2122CC080E090E00E949C110E9438
:10251000651099E08E010F5F1F4FF801292F11926E
:102520002A95E9F79983DA8291E09E8390EA988769
:102530009AEF99872091C3053091C405275F3F4FDB
:102540003C832B838D83C7010E949C1149E050E09E
:10255000B80180E00E94A7110E9465109BC0C701CE
:102560000E949C110E94DD15BE016B5E7F4F0E9490
:102570007F15009719F00CF08DC090C081E0D81243
:102580000EC08B8D9C8D089719F481E08093C00557
:102590008091C00581112FC06AE677E031C0E3E089
:1025A000DE127CC08F89882349F1823029F440E80B
:1025B00067E088E897E01CC0813029F440E86BE0D0
:1025C0008CE797E015C0833009F068C00E94DD15E4
:1025D0008E010F5F1F4FB8010E949E15F8010190F8
:1025E0000020E9F73197E01BF10B40E06E2FC801A6
:1025F0000E9405104DC068E577E002C060E977E011
:102600006115710509F44AC0FB01449150E080E86E
:102610000E94A7113FC0273009F440C0283021F4A0
:1026200081E08093F10036C02930A1F53370B1F517
:10263000E5E0F1E081E021E036E39081992361F06B
:102640008093E9002093EB0091919093EC003093FC
:10265000ED008F5F873089F78EE78093EA00109254
:10266000EA008F898093C70515C08B8D9C8D0E94D1
:102670009C11898D811105C0CE0145960E94B01430
:1026800007C00E94DD15BE016B5E7F4F0E94BD1525
:10269000882321F08EEF8093E80003C081E28093CD
:1026A000EB006C960FB6F894DEBF0FBECDBFDF9186
:1026B000CF91FF91EF91BF91AF919F918F917F91BA
:1026C0006F915F914F913F912F911F910F91FF90CB
:1026D000EF90DF900F900FBE0F901F901895809392
:1026E000E9008091F200882319F08AE38093E800E2
:1026F00008951F920F920FB60F9211242F933F93BC
:102700004F935F936F937F938F939F93AF93BF93F9
:10271000CF93EF93FF93C091E1008091E100837F1D
:102720008093E1008093E100C3FF0FC01092E900A5
:1027300081E08093EB001092EC0082E38093ED0047
:102740001092C70588E08093F000C2FF19C083E0B3
:102750000E946F138091C905882339F08091C905C3
:1027600081508093C905882389F18091C805882309
:1027700039F08091C80581508093C805882341F1C4
:10278000C4FF10C08091E2008E7E81608093E200E1
:102790008091E1008F7E8093E1008091C5058E7E5F
:1027A000806111C0C0FF16C08091E2008E7E806102
:1027B0008093E2008091E1008E7E8093E100809121
:1027C000C5058E7E81608093C50504C05D9ACDCF1E
:1027D000289AD6CFFF91EF91CF91BF91AF919F9162
:1027E0008F917F916F915F914F913F912F910F90BA
:1027F0000FBE0F901F9018951092C7051092C60536
:102800001092C5050E9442108091E1008E7E809357
:10281000E1008DE08093E200559A209AEEEFFFE709
:10282000859194918B3F9C4D19F481E080931A0619
:102830000895611571058105910511F00C94BA1682
:102840000895CF93DF9300D000D0CDB7DEB79B01C2
:10285000AC01611571058105910569F069833A83C1
:102860004B835C830E94B51629813A814B815C8140
:102870000E94271603C060E070E0CB010F900F901C
:102880000F900F90DF91CF91089508950E94C31685
:10289000CF93DF931F92CDB7DEB76983DC01ED9153
:1028A000FC910280F381E02D41E050E0BE016F5FBA
:1028B0007F4F09950F90DF91CF910895CF93DF93CC
:1028C000EC018C859D8597FF05C082E00E94DB109E
:1028D0009D878C878C859D85DF91CF91089583E0BE
:1028E0000C946F13FC018485958597FD06C082E0EA
:1028F0000E94831090E00196089582E00E94831068
:1029000090E00895FC018485958597FD05C02FEF23
:102910003FEF35872487089582E00C94DB10CF9336
:10292000DF93EC0180911601882331F083E00E944F
:102930000C111816190634F081E090E09B838A830D
:1029400080E090E0DF91CF910895FC0120812E5F1F
:10295000208342E450E064E977E080E80C94A7111A
:10296000FC0121818081813A59F4213209F04BC068
:1029700047E050E06FE071E080E00E94A7115EC088
:10298000813209F040C0233289F4838190E0982F8E
:1029900088273281832BA0E0B0E080930B019093D5
:1029A0000C01A0930D01B0930E010FC0203239F439
:1029B00067E070E08FE091E00E94D81109C02232F8
:1029C00021F482818093160103C02D7F2032B1F55E
:1029D00080911A06811103C0E0E0F8E002C0EEEF3A
:1029E000FAE080910F0190911001A0911101B09136
:1029F0001201803B9440A105B10511F580911601AB
:102A000080FF03C01DC080E00895EE3F2AE0F2077A
:102A100031F0808191819093FF0A8093FE0A87E7CD
:102A200097E7918380832BE088E190E00FB6F894DC
:102A3000A895809360000FBE2093600081E0089508
:102A400088E10FB6F89480936000109260000FBE8A
:102A5000A895EE3F8AE0F80739F08091FE0A909140
:102A6000FF0A91838083EACF1092FF0A1092FE0A38
:102A7000E5CF1092CD051092CC0588EE93E0A0E052
:102A8000B0E08093CE059093CF05A093D005B0938E
:102A9000D1058BE291E09093CB058093CA058FEF2F
:102AA0009FEF9093D7058093D6050895EF92FF92FC
:102AB0000F931F93CF93DF937B01FC01C281D381DE
:102AC00000E010E0209781F0E881F9810280F38135
:102AD000E02DB701CE01099597FD08C0080F191F19
:102AE0000884D985C02DEECFC80102C08FEF9FEFBB
:102AF000DF91CF911F910F91FF90EF9008950F9369
:102B00001F93CF93DF938B01FC01C281D381209768
:102B100071F0E881F9810480F581E02DB801CE01E2
:102B20000995009731F40884D985C02DF0CF80E055
:102B300090E0DF91CF911F910F9108950F931F9314
:102B4000CF93DF938B01FC01C281D381209771F079
:102B5000E881F9810680F781E02DB801CE01099561
:102B6000080F111D0884D985C02DF0CFF8011082FF
:102B7000DF91CF911F910F9108950F931F93CF93E2
:102B8000DF938B01FC01C281D381209771F0E88132
:102B9000F9810190F081E02DB801CE0109958111F4
:102BA00006C00884D985C02DF0CF80E001C081E047
:102BB000DF91CF911F910F91089580911F06811190
:102BC0000DC082E080931B0684E080931C06109267
:102BD0001E0610921D0681E080931F068BE196E091
:102BE0000895AA1BBB1B51E107C0AA1FBB1FA61754
:102BF000B70710F0A61BB70B881F991F5A95A9F7A6
:102C000080959095BC01CD010895A1E21A2EAA1BD2
:102C1000BB1BFD010DC0AA1FBB1FEE1FFF1FA2178C
:102C2000B307E407F50720F0A21BB30BE40BF50B89
:102C3000661F771F881F991F1A9469F76095709512
:102C4000809590959B01AC01BD01CF010895052EA3
:102C500097FB1EF400940E943E1657FD07D00E9479
:102C6000051607FC03D04EF40C943E165095409583
:102C7000309521953F4F4F4F5F4F08959095809528
:102C8000709561957F4F8F4F9F4F0895EE0FFF1FF7
:102C90000590F491E02D09940E945716A59F900D80
:102CA000B49F900DA49F800D911D11240895A29FA3
:102CB000B001B39FC001A39F700D811D1124911D10
:102CC000B29F700D811D1124911D08958F929F92C6
:102CD000AF92BF92CF92DF92EF92FF92CF93DF93AA
:102CE000EC01688179818A819B816115710581057B
:102CF000910521F464E279ED8BE597E02DE133EF66
:102D000041E050E00E94271649015A019B01AC01A5
:102D1000A7EAB1E40E944C166B017C01ACEEB4EF63
:102D2000A50194010E94E116C60ED71EE81EF91EE9
:102D3000F7FE06C081E0C81AD108E10880E8F80A69
:102D4000C882D982EA82FB82C701B6019F77DF91F0
:102D5000CF91FF90EF90DF90CF90BF90AF909F907A
:102D60008F9008950E946616089580E091E00E9479
:102D7000661608956093000170930101809302012B
:102D800090930301089581E090E0F8940C94E61686
:102D9000F999FECF92BD81BDF89A992780B5089523
:102DA000262FF999FECF1FBA92BD81BD20BD0FB667
:102DB000F894FA9AF99A0FBE01960895B7FF0C9409
:102DC0004C160E944C16821B930B0895F894FFCF6B
:102DD0000100000000C18081000000FFFFFFFF0034
:102DE000E100000000000000000000760B070F006B
:102DF0000000004614070F0000000048148F1472F2
:082E00001482145E146F14002B
:00000001FF
