:100000000C94E5050C940D060C940D060C940D064D
:100010000C940D060C940D060C940D060C940D0614
:100020000C940D060C940D060C9426120C94010EE3
:100030000C940D060C940D060C940D060C940D06F4
:100040000C940D060C940D060C940D060C940D06E4
:100050000C940D060C940D060C940D060C94D60908
:100060000C940D060C940D060C940D060C940D06C4
:100070000C940D060C940D060C940D060C940D06B4
:100080000C940D060C940D060C940D060C940D06A4
:100090000C940D060C940D060C940D060C940D0694
:1000A0000C940D060C940D060C940D06030906091C
:1000B000F508F908FD082709270927090A090E0983
:1000C000120918091C0927092209F0F89C8E878358
:1000D000878E9CF8F00000FEFF0303030303070E66
:1000E000FCF80000FEFF0303030303070EFCF80007
:1000F00000FFFF00000000000000FFFF0000FEFF07
:100100008383838383C7EE7C380000F8FC0E0703EB
:100110000303070EFCF800003F7FE0C08080C0E0D2
:100120007F3FFFFF01010101010101FFFF0000FF0F
:10013000FF0C0C0C0C1C3E77E3C100007FFFC0C01D
:10014000C0C0C0E0703F1F00001F3F70E0C0C0C0D3
:10015000E0703F1F00007FFFC1C1C1C1C1E3773E16
:100160001C00001F3F70E0C0C0C0E0703F1F0000D7
:1001700000000001FFFF010000000000000024005B
:1001800027002A002D003000D5F08D14A1C881CFA2
:10019000D9F1AF2000040802011040804010204037
:1001A000804080080204018040201002011080106D
:1001B0002040402000000000250028002B002E00D9
:1001C00031000404040404030405020202020403CF
:1001D00002020202060606060606040402020204E1
:1001E000041402130212021502070208020A020A8C
:1001F000010B020B010902090104010C01060100B7
:10020000E038080C06020202020202020206040C96
:100210000818103060C0000000000000000000005E
:100220000000808080C04060203010180808080C52
:1002300000000000000000000000000000C0603866
:100240000C04060203010101030206040C00000075
:10025000000000000000000000000000000000009E
:10026000000000000000000000000000000000008E
:1002700000000000F0F8FCFCFCFCFCFCFCF8F000CA
:100280000F181030202020203010101010101010E7
:1002900010103060C0800000001CF404060202034D
:1002A000010101000000008080C04000000000004B
:1002B00000000000000000000000C03C070100003A
:1002C000000000000000000000000000000000002E
:1002D000000000000000000000000000000000001E
:1002E000000000000000000000000000000000000E
:1002F00000000000011FFFFFFFFFFFFFFF1F0100C5
:100300000000E0800000000000000000000000008D
:10031000000000000083FE000000010F78D80808EC
:100320000C040406020301010000000000000000AC
:1003300000000000000000000000FF0000000000BE
:10034000000000000000000000000000000000802D
:10035000F01C0603037CC0000000FF00000000004A
:1003600080F01E030000FE030101010181818181F3
:1003700000000000000000030F3F0F03000000001A
:10038000000000070C1830202020202020203010F2
:1003900018080C06030100000000000000033E6086
:1003A000000000000000000000000000000000004D
:1003B00000000000000000000000071C70C08080EA
:1003C000808080C0404060201008040200F01E07BA
:1003D0000406020203017F000000033C6060301C41
:1003E00007000000000003FFC181818181C04040FF
:1003F00000000000000000003078783000000000AD
:1004000000000000000000000000000000000000EC
:1004100000000000000000000000000000000000DC
:1004200000000000000000000000000000000000CC
:1004300000000000000000000000000000000000BC
:1004400000000000000000000000000000000000AC
:10045000000000000000000000000000000000009C
:10046000000000000000000000000000000000008C
:10047000000000000000000000000000000000007C
:10048000E0382E23232E38E000000000000000009A
:10049000010101FF01010100007E818181817E0057
:1004A0000000000000000000FF8989898E700000B4
:1004B000FF898981818100003E41819191F1000095
:1004C0008181FF81810000FF020408FF000000001D
:1004D000000000000000000000000000000000001C
:1004E000000000000000000000000000000000000C
:1004F00000000000000000000000000000000000FC
:1005000000000000000000000000000000000000EB
:1005100000000000000000000000000000000000DB
:1005200000000000000000000000000000000000CB
:1005300000000000000000000000000000000000BB
:1005400000000000000000000000000000000000AB
:10055000000000000000000000000000000000009B
:10056000000000000000000000000000000000008B
:10057000000000000000000000000000000000007B
:10058000FF8989898E700000181818FFFF18181845
:100590000000FF80808080800000010101FF0101D8
:1005A0000100007E818181817E000000000000004A
:1005B000FF113149860000FF898981818100004651
:1005C000899191620000FF89898181810000010188
:1005D00001FF0101010000000000004689919162C5
:1005E00000007E81814200007E818181817E000049
:1005F000FF113149860000FF898981818100000057
:10060000507265737320412042746E20746F2053C2
:10061000746172740047616D65204F7665720048A1
:100620006967682053636F72652100000000000055
:100630003E5B4F5B3E3E6B4F6B3E1C3E7C3E1C1850
:100640003C7E3C181C577D571C1C5E7F5E1C0018AE
:100650003C1800FFE7C3E7FF0018241800FFE7DBA2
:10066000E7FF30483A060E2629792926407F0505FE
:1006700007407F05253F5A3CE73C5A7F3E1C1C083B
:10068000081C1C3E7F14227F22145F5F005F5F0600
:10069000097F017F006689956A606060606094A24E
:1006A000FFA29408047E040810207E201008082A67
:1006B0001C08081C2A08081E101010100C1E0C1E06
:1006C0000C30383E3830060E3E0E060000000000AA
:1006D00000005F00000007000700147F147F14244F
:1006E0002A7F2A12231308646236495620500008D4
:1006F000070300001C2241000041221C002A1C7F2D
:100700001C2A08083E080800807030000808080805
:1007100008000060600020100804023E5149453E78
:1007200000427F400072494949462141494D3318F2
:1007300014127F1027454545393C4A49493141212A
:100740001109073649494936464949291E0000140E
:100750000000004034000000081422411414141456
:1007600014004122140802015909063E415D594E08
:100770007C1211127C7F494949363E414141227F1A
:100780004141413E7F494949417F090909013E41B3
:100790004151737F0808087F00417F41002040419C
:1007A0003F017F081422417F404040407F021C02ED
:1007B0007F7F0408107F3E4141413E7F09090906C1
:1007C0003E4151215E7F0919294626494949320394
:1007D000017F01033F4040403F1F2040201F3F401A
:1007E00038403F63140814630304780403615949D3
:1007F0004D43007F41414102040810200041414126
:100800007F0402010204404040404000030708000A
:1008100020545478407F284444383844444428388D
:100820004444287F385454541800087E090218A400
:10083000A49C787F0804047800447D400020404058
:100840003D007F1028440000417F40007C04780474
:10085000787C080404783844444438FC182424186C
:1008600018242418FC7C0804040848545454240414
:10087000043F44243C4040207C1C2040201C3C4041
:1008800030403C44281028444C9090907C44645460
:100890004C44000836410000007700000041360853
:1008A0000002010204023C2623263C1EA1A1611283
:1008B0003A4040207A3854545559215555794121B0
:1008C00054547841215554784020545579400C1E99
:1008D0005272123955555559395454545939555441
:1008E00054580000457C410002457D420001457C92
:1008F00040F0292429F0F0282528F07C54554500A3
:100900002054547C547C0A097F4932494949323287
:1009100048484832324A4848303A4141217A3A42BE
:10092000402078009DA0A07D39444444393D40409A
:10093000403D3C24FF2424487E4943662B2FFC2F56
:100940002BFF0929F620C0887E09032054547941E1
:100950000000447D413048484A32384040227A0005
:100960007A0A0A727D0D19317D2629292F28262918
:1009700029292630484D402038080808080808086A
:1009800008382F10C8ACBA2F102834FA00007B00AA
:100990000008142A142222142A1408950022009513
:1009A000AA005500AAAA55AA55AA000000FF0010E7
:1009B0001010FF00141414FF001010FF00FF10109F
:1009C000F010F0141414FC001414F700FF0000FFE2
:1009D00000FF1414F404FC141417101F10101F103F
:1009E0001F1414141F00101010F0000000001F103E
:1009F0001010101F10101010F010000000FF101049
:100A000010101010101010FF10000000FF14000054
:100A1000FF00FF00001F10170000FC04F41414175F
:100A200010171414F404F40000FF00F71414141445
:100A3000141414F700F7141414171410101F101FB7
:100A4000141414F4141010F010F000001F101F0004
:100A500000001F14000000FC140000F010F0101043
:100A6000FF10FF141414FF141010101F00000000DA
:100A7000F010FFFFFFFFFFF0F0F0F0F0FFFFFF00CE
:100A800000000000FFFF0F0F0F0F0F3844443844E1
:100A90007C2A2A3E147E02020606027E027E026341
:100AA000554941633844443C04407E201E200602E0
:100AB0007E020299A5E7A5991C2A492A1C4C7201BD
:100AC000724C304A4D4D303048784830BC625A46FE
:100AD0003D3E494949007E0101017E2A2A2A2A2AEF
:100AE00044445F444440514A444040444A514000D9
:100AF00000FF0103E080FF000008086B6B0836125E
:100B0000362436060F090F060000181800000010E2
:100B100010003040FF0101001F01011E00191D17C8
:100B200012003C3C3C3C00000000000000000200C1
:100B3000090F0000030401000C0000000000000089
:100B400000000000000000000000080B000202028C
:100B50000100090400000102020000052400100148
:100B600005240101010424020605240600010705ED
:100B7000810310004009040100020A00000007057B
:100B8000020240000007058302400000040309043C
:100B900041726475696E6F204C4C430041726475FC
:100BA000626F79001201000200000040412336808C
:100BB00000010102030112010002EF020140412382
:100BC0003680000101020301C71611241FBECFEFBA
:100BD000DAE0DEBFCDBF26E0A6E5B1E001C01D92A0
:100BE000A534B207E1F711E0A0E0B1E0E4EEFFE2E6
:100BF00002C005900D92A635B107D9F715E0C5EEF4
:100C0000D5E004C02197FE010E941017C43ED10711
:100C1000C9F70E9498120C94F0170C940000CF931F
:100C2000DF931F92CDB7DEB76983DC01ED91FC91B4
:100C30000280F381E02D41E050E0BE016F5F7F4F05
:100C400009950F90DF91CF91089583E08093E9009B
:100C50008091F200882319F08AE38093E8000895D8
:100C60008F929F92AF92BF92CF92DF92EF92FF92BC
:100C70000F931F93CF93DF935C016B018A018091E7
:100C80000B01882309F45EC08091CA01882309F40E
:100C900059C08091C70180FF05C08091E00082604B
:100CA0008093E000E8018AEFF82E93E0E92E2FE32D
:100CB000822E3AE3932E209709F43DC08FB7F89423
:100CC000E092E9009091E80095FF06C09091F20053
:100CD000282D291B922F01C090E08FBF91110AC0CF
:100CE000FA94FF2079F161E070E080E090E00E94EA
:100CF0009C09E1CF292F30E0C217D3070CF49C2FB9
:100D00008FB7F894E092E9002091E80025FF11C028
:100D1000292F30E0C21BD30BF601915020F04191F6
:100D20004093F100FACFC20ED31E9091E80095FFD8
:100D300013C08FBFC0CF5D9884E68093C8011016A2
:100D4000110644F081E090E0F5019383828380E016
:100D500090E005C0C80103C09092E800EACFDF919F
:100D6000CF911F910F91FF90EF90DF90CF90BF90A8
:100D7000AF909F908F9008950F931F93CF93DF9321
:100D80001F92CDB7DEB78C01FC018485958597FF56
:100D90000EC0CE0101960E94E811019719F4298135
:100DA00030E002C02FEF3FEFF80135872487F801CC
:100DB000848595850F90DF91CF911F910F910895B4
:100DC000CF93DF931F92CDB7DEB7FC018485958565
:100DD00097FD05C02FEF3FEF358724870BC0CE016D
:100DE00001960E94E811019719F4898190E002C0F0
:100DF0008FEF9FEF0F90DF91CF910895FC018485D5
:100E0000958597FD0BC09FB7F89482E08093E90029
:100E10008091F2009FBF90E0019608959FB7F894EB
:100E200082E08093E9008091F2009FBF90E00895F6
:100E30006038710518F54034510500F5E42FE6954A
:100E4000E695E695F0E047705527F695FE2FEE27DC
:100E5000F795E7956E0F7F1FFB01E553FE4F81E08D
:100E600090E001C0880F4A95EAF7222319F090819B
:100E7000892B03C0809590818923808308952F92C8
:100E80003F924F925F926F927F928F929F92AF921A
:100E9000BF92CF92DF92EF92FF920F931F93CF9367
:100EA000DF93CDB7DEB72A970FB6F894DEBF0FBE3B
:100EB000CDBFFC016A3069F4248D808D918D38E0BE
:100EC000239F800D911D1124918F808F178A168A80
:100ED000B0C06D3009F4ADC09A878987E48C338D3A
:100EE000828D8983208C318C068917890038110501
:100EF000C4F0A985BA855C962C915C97422F50E08E
:100F000056968D919C915797B6E02B9F800D911D21
:100F10001124E985FA85978B868B258D211173C065
:100F200088C0F0E42F16310424F7C80125E0E29EC2
:100F3000800D911D112418161906DCF68E2D90E0F7
:100F40009B838A83C101A8E0EA9E800D911D112434
:100F50001816190674F625E0629FF0011124FD832E
:100F6000EC83C12CD12C89859A8504969F838E832E
:100F700095E0C916D10441F0EC81FD81EC0DFD1D19
:100F8000E55DF94FF49001C0F12C310188E0482E65
:100F9000F0FC02C0532E01C0598051100CC0A98131
:100FA0003A1309C0F6944A94EA81FB816E0E7F1EC3
:100FB0004110EECF1BC058018A2D801B8E1590F773
:100FC0004301882D86198E1568F4252DA401B501DD
:100FD0008E819F8138870E941807FFEF8F1A9F0A22
:100FE0003885EFCF2FEFA21AB20AE6CF8FEFC81ADB
:100FF000D80AAA81BB810A0F1B1FB6E0CB16D10409
:1010000009F0B6CF76CF6AEF64039001659F300D8B
:10101000112420583F4F281739075CF4A985BA8559
:10102000ED91FC9111970190F081E02D6AE0CD01E6
:10103000099581E090E02A960FB6F894DEBF0FBEC6
:10104000CDBFDF91CF911F910F91FF90EF90DF9077
:10105000CF90BF90AF909F908F907F906F905F9058
:101060004F903F902F90089508957F928F929F9276
:10107000AF92BF92CF92DF92EF92FF920F931F93A6
:10108000CF93DF932091B30122303CF49B01245095
:1010900031092831310508F07DC0742EEB017C0147
:1010A000EE0CFF1CEE0CFF1CCC0FDD1F21E0AE018F
:1010B000B7018FE196E00E9418076E018FEFC81A02
:1010C000D80A47018FEF881A980A21E0A601B401D7
:1010D0008FE196E00E94180787010E5F1F4F21E005
:1010E000AE01B8018FE196E00E941807570183E036
:1010F000A80EB11C21E0A601B5018FE196E00E9487
:1011000018077720C9F021E0A601B7018FE196E02A
:101110000E94180721E0AE01B4018FE196E00E9421
:10112000180721E0A601B8018FE196E00E94180798
:1011300021E0AE01B5011DC01C161D0664F021E0C2
:1011400040E050E0B7018FE196E00E94180721E0EF
:1011500040E050E00DC0EF97ECF021E04FE350E0AD
:10116000B7018FE196E00E94180721E04FE350E0BD
:10117000B8018FE196E0DF91CF911F910F91FF9021
:10118000EF90DF90CF90BF90AF909F908F907F9027
:101190000C941807DF91CF911F910F91FF90EF9062
:1011A000DF90CF90BF90AF909F908F907F900895E9
:1011B000362F90E0FC01E55DF44F4491FC01EB56C5
:1011C000FE4F2491FC01EE53FE4F8491882309F4D5
:1011D00051C04423E1F150E0FA013197EF30F105BD
:1011E000B0F5EA5AFF4F0C941017909180009F774A
:1011F00007C0909180009F7D03C090918000977FF1
:101200009093800024C094B59F7702C094B59F7DD1
:1012100094BD1DC0909190009F7707C09091900061
:101220009F7D03C090919000977F909390000FC096
:101230009091C0009F7703C09091C0009F7D9093D4
:10124000C00005C09091C200977F9093C200E82F24
:10125000F0E0EE0FFF1FEC54FE4FA591B4918FB755
:10126000F894EC91311103C020952E2301C02E2B50
:101270002C938FBF0895CF93DF9390E0FC01EB5642
:10128000FE4F2491FC01EE53FE4F8491882361F1BF
:1012900090E0880F991FFC01E658FE4FC591D4914C
:1012A000FC01EC54FE4FA591B491611109C09FB7A8
:1012B000F8948881209582238883EC912E230BC09B
:1012C000623061F49FB7F8943881822F8095832330
:1012D0008883EC912E2B2C939FBF06C08FB7F89478
:1012E000E8812E2B28838FBFDF91CF9108953FB7E0
:1012F000F8948091BC019091BD01A091BE01B09184
:10130000BF0126B5A89B05C02F3F19F00196A11D6E
:10131000B11D3FBFBA2FA92F982F8827820F911D8B
:10132000A11DB11DBC01CD0142E0660F771F881FD2
:10133000991F4A95D1F708958F929F92AF92BF92CD
:10134000CF92DF92EF92FF926B017C010E947709AE
:101350004B015C01C114D104E104F104F1F00E94DD
:101360007709DC01CB0188199909AA09BB09883ED4
:101370009340A105B10570F321E0C21AD108E1083C
:10138000F10888EE880E83E0981EA11CB11CC114E0
:10139000D104E104F10419F7DDCFFF90EF90DF9065
:1013A000CF90BF90AF909F908F9008951F920F9213
:1013B0000FB60F9211242F933F938F939F93AF9368
:1013C000BF938091B8019091B901A091BA01B091F9
:1013D000BB013091B70123E0230F2D3720F4019694
:1013E000A11DB11D05C026E8230F0296A11DB11D48
:1013F0002093B7018093B8019093B901A093BA01EB
:10140000B093BB018091BC019091BD01A091BE0140
:10141000B091BF010196A11DB11D8093BC019093B5
:10142000BD01A093BE01B093BF01BF91AF919F9149
:101430008F913F912F910F900FBE0F901F90189595
:101440008FB12CB193B130E02095309520743327C3
:10145000A90123E0559547952A95E1F7292F30E01A
:10146000209530952071332735952795359527950B
:10147000242B8095807F822B08951F93CF93DF9339
:101480001F92CDB7DEB7162F682F8AE049830E94DE
:10149000D808612F8BE00E94D8084981642F89E029
:1014A0000F90DF91CF911F910C94D808E0915A01D1
:1014B000F0915B01908180915901892B8083E091AB
:1014C0005701F091580190818091560180958923B0
:1014D0008083E0915A01F0915B01908180915901E4
:1014E0008095892380830895E0915701F0915801F8
:1014F000908180915601892B8083E0915A01F0916F
:101500005B019081809159018095892380830895A2
:101510008EBD00000DB407FEFDCF8EB508950F936C
:101520001F93CF93DF931F92CDB7DEB7182F062FEF
:1015300061E089E049830E94D80868EC70E080E0AF
:1015400090E00E949C0960E0802F0E94D80882E011
:1015500090E00E9477174981481729F0642F82E0B4
:1015600090E00E947F1764EF71E080E090E00E94BD
:101570009C0961E0802F0E94D8080E94200A8123E4
:101580008117D9F30F90DF91CF911F910F9108959B
:10159000AF92BF92CF92DF92EF92FF920F931F9381
:1015A000CF93DF931F92CDB7DEB75C017B018B0138
:1015B0006C0182E0C80ED11CF80161918F01C50158
:1015C00069830E9477176981681719F0C5010E9425
:1015D0007F17FFEFAF1ABF0AAC14BD0469F7C7014C
:1015E0000F90DF91CF911F910F91FF90EF90DF90BF
:1015F000CF90BF90AF900895CF93C82F0E946917E6
:1016000024E630E040E050E00E948D176E31710515
:10161000810591052CF49091B60191959093B601B6
:101620009091B6018C2F890F90915D01482F082E63
:10163000000C550B292F092E000C330B2E503109AD
:10164000421753072CF482EF890F91E09093B60173
:101650008F3024F08FEF8093B6018EE0CF91089504
:101660008F929F92AF92BF92DF92EF92FF920F9371
:101670001F93CF93DF938091B1019091B2018D3D83
:1016800025E0920740F064E170E080E090E00E9485
:101690009C0911E02AC08636E4E09E0740F06EE126
:1016A00070E080E090E00E949C0912E01EC08F3E36
:1016B000F2E09F0740F068E270E080E090E00E9476
:1016C0009C0913E012C08837914040F062E370E05B
:1016D00080E090E00E949C0914E007C06CE370E099
:1016E00080E090E00E949C0915E00E94E0108FE5E8
:1016F000E82E81E0F82EC0E0D0E090E1D92EA12EB6
:10170000012E000CBB08F701319780819D2C981A9F
:10171000092D011B091554F4602F002E000C770BC6
:1017200040E0CE010E9435080F5FF4CFF7018081C1
:101730000D2D081B4501800E911C07FD9A94602F0A
:10174000002E000C770B6815790534F440E0CE01CB
:101750000E9435080F5FF3CFC031D10568F4FE0158
:10176000E156FE4F80816D2D681B062E000C770B15
:1017700041E0CE010E9435082196F2E0EF0EF11C07
:10178000C032D10509F0BFCF81E0809335061092B9
:101790003206109231061092340610923306809170
:1017A000B3014091B1015091B201823009F4B8C047
:1017B0004031574228F460E38BE196E00E943F07F6
:1017C0008091B1019091B201883E934028F460E38A
:1017D0008BE196E00E943F078091B1019091B201A8
:1017E0008436910528F460E38BE196E00E943F0780
:1017F0008091B1019091B2010A9728F460E38BE1E6
:1018000096E00E943F074091B1015091B20160E023
:1018100070E02AE08BE196E00E94531080915C0119
:101820008823A1F181E0809336061092350610924C
:10183000320610923106109234061092330660E29E
:101840008BE196E00E943F0760E28BE196E00E9408
:101850003F078FE196E00E94B01060E28BE196E0D6
:101860000E943F0760E28BE196E00E943F0760E242
:101870008BE196E00E943F0760E28BE196E00E94D8
:101880003F0760E28BE196E00E943F0782E690E02E
:1018900090933206809331061092340610923306EC
:1018A0008091AF019091B0018031974228F460E3BC
:1018B0008BE196E00E943F078091AF019091B001CB
:1018C000883E934028F460E38BE196E00E943F0756
:1018D0008091AF019091B0018436910528F460E3C6
:1018E0008BE196E00E943F078091AF019091B0019B
:1018F0000A9728F460E38BE196E00E943F0740914D
:10190000AF015091B00160E070E02AE08BE196E019
:101910000E94531081E0809335061092360607C06E
:1019200060E070E02AE08BE196E00E945310809125
:10193000B30181110FC085E290E09093320680934D
:10194000310688E390E0909334068093330685E176
:1019500096E010C0813081F48AE090E090933206E6
:101960008093310689E390E09093340680933306A8
:1019700080E096E00E94B010DF91CF911F910F910F
:10198000FF90EF90DF90BF90AF909F908F900C945E
:101990009E10FF920F931F93CF93DF93EFE9F1E037
:1019A00080E18E0F11928E13FDCF86E180935D0151
:1019B00081E08093B601CEE5D1E010E00BE085EF49
:1019C000F82E111105C000935E01F0925F010AC06C
:1019D000FE01329780810E94FC0A888390915D010C
:1019E000891B89831F5F2296103259F710925C0180
:1019F00081E08093B30182E080939E01DF91CF91DB
:101A00001F910F91FF900C94300B4091C5015091A4
:101A1000C6012091C3013091C40142175307B4F4A9
:101A20009091E8009570E1F39091E80092FD19C063
:101A30008093F1008091C5019091C60101968F734A
:101A40009927892B19F48EEF8093E8008091C501C6
:101A50009091C60101969093C6018093C50181E0E3
:101A6000089580E00895CF92DF92EF92FF920F9356
:101A70001F93CF93DF931F92CDB7DEB7182F062F9A
:101A8000E42E862F880F8E5F99830E94050D83E0D8
:101A90000E94050DF12EC12E9981D92E8C2D8F1902
:101AA000801798F4F601E7FE02C0849101C080819E
:101AB0000E94050D182F80E00E94050D8123FFEF85
:101AC000CF1ADF0A8111EACF01C081E00F90DF91C8
:101AD000CF911F910F91FF90EF90DF90CF900895DD
:101AE000DF92EF92FF920F931F93CF93DF93D82E45
:101AF0008A017B01E40EF51EEB01CE15DF0571F0C6
:101B0000D7FE03C0FE01849101C088810E94050DAB
:101B100021968111F2CF8FEF9FEF01C0C801DF91B5
:101B2000CF911F910F91FF90EF90DF90089561503A
:101B300030F02091F100FC0120830196F8CF289825
:101B400084E68093C9010895CF92DF92EF92FF92CD
:101B50000F931F93CF93DF936C017A018B01C0E049
:101B6000D0E0CE15DF0589F0D8016D918D01D60149
:101B7000ED91FC910190F081E02DC6010995892B32
:101B800011F47E0102C02196ECCFC701DF91CF9105
:101B90001F910F91FF90EF90DF90CF9008950F93DA
:101BA0001F93CF93DF931F92CDB7DEB782E0898377
:101BB00042E450E06AE47BE080E80E94700D0E94FD
:101BC0001212DC0112960D911C911397011511054B
:101BD00069F0D801ED91FC910280F381E02DBE0106
:101BE0006F5F7F4FC801099597FF07C089810F90EC
:101BF000DF91CF911F910F910895F8010085118514
:101C0000E5CF1F920F920FB60F921124CF92DF9261
:101C1000EF92FF920F931F932F933F934F935F93F6
:101C20006F937F938F939F93AF93BF93EF93FF93A4
:101C3000CF93DF93CDB7DEB76C97DEBFCDBF1092E9
:101C4000E9008091E80083FFFAC168E0CE01459683
:101C50000E94970D82EF8093E8008D8987FF05C071
:101C60009091E80090FFFCCF03C09EEF9093E800B6
:101C7000982F907609F0C6C09E892F89188D9111F2
:101C80000CC0803829F48091C1018093F10002C01A
:101C90001092F1001092F10047C1422F50E0512BF9
:101CA000913051F4811140C14130510509F03CC1DE
:101CB0008091C1018D7F0BC0933061F4811134C1DB
:101CC0004130510509F030C18091C101826080939B
:101CD000C1012AC1953041F48091E80080FFFCCF1A
:101CE00020682093E30020C1963009F05FC0EB8CA0
:101CF000FC8C1092E9001092C6011092C5011230BE
:101D000091F51092C4011092C3010E94CF0D99E089
:101D1000BE016F5F7F4FDB01E92F1D92EA95E9F766
:101D200099831A8391E09E8390EA98879AEF998726
:101D30002091C5013091C601275F3F4F3C832B8323
:101D40008D831092E9001092C6011092C501F092A5
:101D5000C401E092C30149E050E080E00E94700DB0
:101D60000E94CF0DE1C0F092C401E092C3010E9435
:101D70001212DC011296ED90FC901397E114F1041D
:101D800009F4C0C0D701ED91FC910480F581E02DEC
:101D9000BE016B5E7F4FC7010995009719F00CF0EB
:101DA000C3C0C6C0F701E084F184E8CF973009F4DE
:101DB000BFC0983021F481E08093F100B5C0993024
:101DC00009F0B2C0837009F0B3C0E1E1F1E081E055
:101DD00021E036E39081992361F08093E90020931C
:101DE000EB0091919093EC003093ED008F5F873082
:101DF00089F78EE78093EA001092EA008F8980933A
:101E0000CA0192C08B8D9C8D1092E9001092C60180
:101E10001092C5019093C4018093C301898D8111F3
:101E200056C08E899D89913A59F4813209F080C05B
:101E300047E050E064E071E080E00E94700D74C003
:101E4000913209F075C0833289F4888D90E0982F23
:101E500088272F89822BA0E0B0E080930001909327
:101E60000101A0930201B09303015EC0803269F4C6
:101E70008091E80082FFFCCF67E084E091E00E945F
:101E8000970D8BEF8093E80006C0823209F04CC0BA
:101E90008F8980930B018091C001882319F0EEEFA8
:101EA000FAE002C0E0E0F8E08091040190910501C1
:101EB000A0910601B0910701803B9440A105B105B6
:101EC00009F088C080910B0180FFA0C083C00E94F0
:101ED0001212DC0112960D911C9113970115110538
:101EE00039F1D801ED91FC910190F081E02DBE0116
:101EF0006B5E7F4FC8010995811116C0F8010085FE
:101F00001185ECCF1130C1F0133091F48F89882303
:101F100009F455C08230E9F440E867E08CE99BE0C1
:101F20000E94330D882321F08EEF8093E80087C054
:101F300081E28093EB0083C08B8D9C8D089711F418
:101F40001093C2018091C201811136C064EA7BE026
:101F500038C0813029F440E86BE080E99BE0E0CFB5
:101F6000833031F70E941212DC011296ED90FC9042
:101F700013978E010F5F1F4F6801E114F10479F090
:101F8000D701ED91FC910680F781E02DB801C701E2
:101F90000995080F111DF701E084F184EECFD801F7
:101FA0001C92F60101900020E9F73197BF016C19EE
:101FB0007D0940E0C601B4CF66EB7BE002C06CE86F
:101FC0007BE06115710509F4B3CFFB01449150E04A
:101FD00080E833CF0FB6F894A895809160008861AF
:101FE00080936000109260000FBEA895EE3F2AE03B
:101FF000F20739F08091FE0A9091FF0A9183808365
:1020000093CF1092FF0A1092FE0A8ECFEE3F8AE025
:10201000F80731F0808191819093FF0A8093FE0A46
:1020200087E797E7918380839BE088E10FB6F89478
:10203000A895809360000FBE9093600075CF6C965A
:102040000FB6F894DEBF0FBECDBFDF91CF91FF91E9
:10205000EF91BF91AF919F918F917F916F915F9120
:102060004F913F912F911F910F91FF90EF90DF9033
:10207000CF900F900FBE0F901F90189561157105AE
:1020800079F0FB0101900020E9F73197AF01461B81
:10209000570BDC01ED91FC910280F381E02D099456
:1020A00080E090E008954F925F926F927F92EF925E
:1020B000FF920F931F93CF93DF93CDB7DEB7A19716
:1020C0000FB6F894DEBF0FBECDBF7C01FA01CB0185
:1020D00019A2223008F42AE08E010F5D1F4F422E14
:1020E000512C612C712CBF01A30192010E94BF17DA
:1020F000F901CA01015011096A3014F4605D01C090
:10210000695CD8016C93232B242B252B61F7B80134
:10211000C7010E943E10A1960FB6F894DEBF0FBE15
:10212000CDBFDF91CF911F910F91FF90EF907F90E6
:102130006F905F904F9008950E9416178091CB0189
:102140008EBDECECF1E081910DB407FEFDCF8EBDAC
:1021500085E0EB3CF807B9F70DB407FEFDCF089515
:102160000F931F93CF93DF938C01C0E0D0E0F80171
:10217000EC0FFD1F6491662371F0E0911B06F09156
:102180001C060190F081E02D8BE196E00995892BEA
:1021900011F02196ECCFCE01DF91CF911F910F91DD
:1021A000089520E08BEC91E0B22FB111BFEFFC015C
:1021B0000024B193B193B193B1930394D1F70895EF
:1021C0000E94D110EBE1F6E0118E108E178A168A6C
:1021D00008952F923F924F925F926F927F928F92CB
:1021E0009F92AF92BF92CF92DF92EF92FF920F93A6
:1021F0001F93CF93DF93CDB7DEB728970FB6F89430
:10220000DEBF0FBECDBF5A01822E912C9C01280D3E
:10221000391D37FDC4C0803891050CF0C0C09B014A
:10222000200F311D37FDBBC0603471050CF0B7C005
:10223000AB0177FF04C044275527461B570B477057
:1022400055279B0177FF02C0295F3F4FE3E035959B
:102250002795EA95E1F777FF08C02150310968E03A
:1022600070E0DB01A41BB50BAD01602F6695669590
:10227000669570E0077011F06F5F7F4FDB01A20F72
:10228000B31FBA83A98339017694762C6624779498
:102290006794680E791EE12CF12C00E010E0230118
:1022A000B0E84B0E511C68E070E0DB01A41BB50BDD
:1022B000BC83AB8369817A812617370709F46FC025
:1022C0002830310509F46BC02F3FBFEF3B070CF4FA
:1022D0005BC0B201600F711FDB01A553BE4FBE830F
:1022E000AD83D801A60DB71DA553BE4F6C0160E0AC
:1022F00070E0681579050CF047C0E0E8CE16D1040F
:1023000009F442C0D7FC34C02F3FFFEF3F0709F468
:1023100042C0FB01EE0DFF1DEA0DFB1DE491042EF2
:1023200001C0EE0F0A94EAF73C90E329EC934115C3
:102330005105F1F027303105D9F0FB01EE0DFF1DFD
:10234000EA0DFB1DE4912E2E312CF1010B8002C011
:10235000F595E7950A94E2F7F887EF83ED81FE8122
:102360003080EF81F885E3291F01ED81FE81208215
:102370006F5F7F4FED81FE813196FE83ED83FFEF2E
:10238000CF1ADF0A1196B5CF2F5F3F4F00581F4F6E
:10239000E80CF91C8FCF4115510579F6E9CF289645
:1023A0000FB6F894DEBF0FBECDBFDF91CF911F9166
:1023B0000F91FF90EF90DF90CF90BF90AF909F90E4
:1023C0008F907F906F905F904F903F902F900895E7
:1023D000FC018091CA01811103C08FEF9FEF089526
:1023E0009FB7F89482E08093E9002091F20030E0FA
:1023F0001216130614F421E030E02115310559F0CE
:10240000289884E68093C9018091F10080838091AF
:10241000F200882319F09FBFC90108958BE68093CD
:10242000E800F9CF80913D0681110DC082E08093D4
:10243000390684E080933A0610923C0610923B06DF
:1024400081E080933D0689E396E008951F920F9204
:102450000FB60F9211248F939F938091E10090917A
:10246000E100937F9093E10083FF0FC01092E90099
:1024700091E09093EB001092EC0092E39093ED00CA
:102480001092CA0198E09093F00082FF20C093E080
:102490009093E9009091F200992319F09AE39093B8
:1024A000E8009091C801992339F09091C8019150AA
:1024B0009093C801992389F19091C901992339F02A
:1024C0009091C90191509093C901992341F184FFE2
:1024D00010C08091E2008E7E81608093E200809146
:1024E000E1008F7E8093E1008091C7018E7E806144
:1024F00011C080FF16C08091E2008E7E80618093C3
:10250000E2008091E1008E7E8093E1008091C7011E
:102510008E7E81608093C70104C05D9ACDCF289ADA
:10252000D6CF9F918F910F900FBE0F901F9018954F
:10253000CF93DF9300D0CDB7DEB7789484B58260B7
:1025400084BD84B5816084BD85B5826085BD85B557
:10255000816085BD80916E00816080936E001092D5
:102560008100809181008260809381008091810050
:1025700081608093810080918000816080938000E1
:1025800080919100826080939100809191008160A0
:102590008093910080919000816080939000809161
:1025A000C10084608093C1008091C10082608093EB
:1025B000C1008091C10081608093C1008091C300FF
:1025C00081608093C3008091C00082608093C000CE
:1025D0008091C20081608093C20080917A00846003
:1025E00080937A0080917A00826080937A00809153
:1025F0007A00816080937A0080917A00806880936D
:102600007A001092CA011092C1011092C701809104
:10261000D70081608093D70080EA8093D80089B585
:10262000806189BD89B5826089BD09B400FEFDCF96
:1026300061E070E080E090E00E949C098091D80009
:102640008F7C80618093D8008091E000807F8093B0
:10265000E0008091E1008E7E8093E1008DE0809328
:10266000E200559A209AEEEFFFE7859194918B3F17
:102670009C4D19F481E08093C0011FB7F8948091BC
:10268000B501811127C0E3EDF1E08491E6EAF1E0C4
:102690009491E82FF0E0EE0FFF1FE658FE4FA59152
:1026A000B491EC91E92321F461E081E10E94D80822
:1026B00061E081E10E943B098CB580618CBD8CB5E5
:1026C00080648CBD61E08FE00E943B0961E080E1A5
:1026D0000E943B098091B5018F5F8093B5011FBFB8
:1026E00001EE11E0F80184910E5F1F4F3196649165
:1026F000882319F00E943B09F5CF61E086E00E9433
:10270000D80861E070E080E090E00E949C0960E001
:1027100086E00E94D8086AE070E080E090E00E94C5
:102720009C0961E086E00E94D808EEECF1E0E491BB
:10273000F0E0EE0FFF1FEC54FE4F859194919093C3
:102740005B0180935A01E1EAF1E0E491E0935901E1
:10275000E6ECF1E0E491F0E0EE0FFF1FEC54FE4FE9
:10276000859194919093580180935701E9E9F1E0A4
:10277000E491E09356018CB58C7F8CBD8DB5816062
:102780008DBD0E94560A08E811E0EDE0FE2EF00E25
:10279000F80184910E94880A0F5F1F4FF012F8CF52
:1027A0000E94740A8091640081608093640080912B
:1027B00064008260809364008091640080688093EC
:1027C000640080916400806480936400809165005F
:1027D00081608093650000E014E080E00E94880A38
:1027E00001501109D1F70E94200A87FF44C00E94BE
:1027F000560A85EA0E94880A0E94740A40E060E056
:1028000080E00E943D0A0E94200A84FD0BC083B72D
:10281000817F83BF83B7816083BF889583B78E7FB5
:1028200083BFF1CF41E061E081E00E943D0A0E9458
:10283000560A84EA0E94880A0E94740A1CC060E05A
:1028400089E00E94D8080E94200A8478843821F404
:102850004FEF6BE00E948F0A0E94200A847184313E
:1028600021F440E06AE00E948F0A68EC70E080E0AA
:1028700090E00E949C090E94200A82FDE0CF61E066
:1028800089E00E94D80882E090E00E9477178823B0
:1028900059F061E085E00E943B0961E08DE00E9413
:1028A0003B0981E08093B40160E08AE00E94D8088F
:1028B0005EEEE52EFF24FA940E94200A86FF06C0F1
:1028C00041E061E081E00E943D0A43C01E2D1C3FB3
:1028D00019F441E060E004C0183129F440E061E0FF
:1028E00081E00E943D0A0E94D11000E128E54AECF7
:1028F00050E0B70184E190E00E94E9100E949E1030
:102900006BE170E080E090E00E949C09103F31F4A0
:102910006AEF70E080E090E00E949C09FFEFEF1A00
:10292000FF0A29E1E216F10439F66EEE72E080E06A
:1029300090E00E949C0961E089E00E94D808E09143
:102940001F06F09120060190F081E02D8FE196E0C6
:10295000099562E370E080E090E00E949C090E948B
:10296000200A8111F6CF0E94E01080E190E00E94E1
:1029700077178093AF0181E190E00E9477178093F1
:10298000B00100E420E840E052E060E070E080E068
:1029900090E00E94E9100E949E10109238068091EB
:1029A00064008E7F8093640087EC80937C0080E2DB
:1029B00080937B0062E070E080E090E00E949C09E0
:1029C00080917A00806480937A0080917A0086FDFD
:1029D000FCCF0091780010917900009510958EE55C
:1029E00080937C0062E070E080E090E00E949C09AF
:1029F00080917A00806480937A0080917A0086FDCD
:102A0000FCCFE0907800F09079000E9477099B015C
:102A1000AC012095309540955095E094F094E09E5F
:102A2000D001E19EB00DF09EB00D11240E94AC17B4
:102A30006B017C010E9477096C0D7D1D8E1D9F1D11
:102A4000611571058105910511F00E946E17809145
:102A5000640081608093640060ED77E080E090E046
:102A60000E949C090E94E0100E94C90C8FEF9FEF0A
:102A70009093D8058093D7052BE4E22EF12C30E01B
:102A8000C32E30E0D32E42E0A42E992493940DEF70
:102A900093E0B92E80912406809325060E94200A97
:102AA000809324069091B301923009F0C3C08093C3
:102AB00025060E94200A809324061091AE010E94F0
:102AC000200A90919E0183FF02C09F5F01C0915038
:102AD00090939E0180919E0184301CF0B0929E01E3
:102AE0001F5F80919E018D3F1CF400939E01115049
:102AF00080919E01181614F41F5F02C081111150BD
:102B0000113124F4113F1CF411EF01C010E1809148
:102B10009C010E94FC0A90915D01E82FE91B9E2F09
:102B2000E1E6F1E020E030E0DF0111974C911297EF
:102B30004C93408111964C932F30310538F4D901D4
:102B4000A156BE4F11964C9111974C932F5F3F4F5A
:102B500032962F31310541F780939C0190939D016E
:102B60001093AE0180917C01181714F01092B301FC
:102B700080917D01811714F01092B3018091B3010F
:102B8000811140C08091B1019091B2012091AF01BB
:102B90003091B0012817390760F59093B001809308
:102BA000AF0190925C016FEA71E080E190E00E94D9
:102BB000C80A2AE040E150E060E070E08BEC95E06C
:102BC0000E94531067E371E08BEC95E00E943E1089
:102BD0004091AF015091B00160E070E02AE08BECD1
:102BE00095E00E94531067E371E08BEC95E00E9442
:102BF0003E100E94300B64EF71E080E090E00E9494
:102C00009C0922C00E94300B8091B1019091B201C9
:102C100001969093B2018093B10120915D0125301E
:102C20009CF0B7010E94FC16892B71F4215020936F
:102C30005D010AC02091250623FF06C083FD04C064
:102C400091115BC00E94C90C0E94200A84728432D8
:102C500009F04CC00E94E01010923206109231062A
:102C600010923406109233066AE371E08BE196E02D
:102C70000E943E1067E371E08BE196E00E943E10F7
:102C80000E949E1068EE73E080E090E00E949C0934
:102C900080E1682E712C1A821982BE016F5F7F4F0E
:102CA000C3010E94C80AFFEF6F1A7F0A26E162166D
:102CB000710489F71092B0011092AF016FE471E0D6
:102CC0008BE196E00E943E1067E371E08BE196E0B5
:102CD0000E943E100E949E1068EE73E080E090E03B
:102CE0000E949C090E94E0100E94C90CC114D104EA
:102CF00009F4D0CE0E940000CACE913009F0A4CFD2
:102D0000A092B3011092B2011092B1019DCF0F9326
:102D10001F93CF93DF938C018AE090E00E94771796
:102D20009FEF980F9E3F58F522E330E0D801579669
:102D30003C932E93569728E330E059963C932E937C
:102D40005897CBE0D0E0D801ED91FC910190F08153
:102D5000E02D682FC8010995CE010E9477172196B2
:102D6000C131D10581F70E949E106CED75E080E0C5
:102D700090E0DF91CF911F910F910C949C09DF910E
:102D8000CF911F910F91089504970C948716EBEC47
:102D9000F5E01382128288EE93E0A0E0B0E0848335
:102DA0009583A683B7838BE191E0918380838FEF36
:102DB0009FEF95878487EBE1F6E0138212821186FC
:102DC000128680E1838710861782108A118A128A00
:102DD000138A148A8BE291E09183808385E391E0EA
:102DE00095838483178A168A118E108E81E0828FD4
:102DF000138E848F158E0895AA1BBB1B51E107C04B
:102E0000AA1FBB1FA617B70710F0A61BB70B881F7A
:102E1000991F5A95A9F780959095BC01CD01089509
:102E2000EE0FFF1F0590F491E02D099481E090E0F2
:102E3000F8940C94F0178F929F92AF92BF92CF921A
:102E4000DF92EF92FF92CF93DF93EC01688179815B
:102E50008A819B81611571058105910521F464E2E8
:102E600079ED8BE597E02DE133EF41E050E00E94F2
:102E70008D1749015A019B01AC01A7EAB1E40E94F8
:102E8000AC176B017C01ACEEB4EFA50194010E947C
:102E9000BA17DC01CB018C0D9D1DAE1DBF1DB7FF08
:102EA00003C00197A109B04888839983AA83BB8393
:102EB000BC01CD019F77DF91CF91FF90EF90DF9024
:102EC000CF90BF90AF909F908F9008950E941B1756
:102ED00008958CE091E00E941B17089560930C0107
:102EE00070930D0180930E0190930F010895F9994D
:102EF000FECF92BD81BDF89A992780B50895262FFF
:102F0000F999FECF1FBA92BD81BD20BD0FB6F894CE
:102F1000FA9AF99A0FBE01960895052E97FB1EF4B2
:102F200000940E94A41757FD07D00E94BF1707FC0A
:102F300003D04EF40C94A4175095409530952195EC
:102F40003F4F4F4F5F4F08959095809570956195D5
:102F50007F4F8F4F9F4F08950E94E117A59F900DBF
:102F6000B49F900DA49F800D911D11240895B7FF6B
:102F70000C94AC170E94AC17821B930B0895A1E22E
:102F80001A2EAA1BBB1BFD010DC0AA1FBB1FEE1FE3
:102F9000FF1FA217B307E407F50720F0A21BB30B2E
:102FA000E40BF50B661F771F881F991F1A9469F7AA
:102FB00060957095809590959B01AC01BD01CF0106
:102FC0000895A29FB001B39FC001A39F700D811D02
:102FD0001124911DB29F700D811D1124911D089522
:042FE000F894FFCF93
:102FE400FFFFFFFF00E100000000000001000000FF
:102FF40000C18081000000000000000F063006FEC2
:1030040006E006BC062506000000003F07A40D8765
:1030140016FCFF0000C4160D0A0052657365747433
:10302400696E6720486967682053636F726500445E
:063034006F6E6521000033
:00000001FF
